{
  "_format": "hh-sol-artifact-1",
  "contractName": "Greeter",
  "sourceName": "contracts/Greeter.sol",
  "abi": [
    {
      "inputs": [
        {
          "internalType": "string",
          "name": "_greeting",
          "type": "string"
        }
      ],
      "stateMutability": "nonpayable",
      "type": "constructor"
    },
    {
      "inputs": [],
      "name": "counter",
      "outputs": [
        {
          "internalType": "uint256",
          "name": "",
          "type": "uint256"
        }
      ],
      "stateMutability": "view",
      "type": "function"
    },
    {
      "inputs": [],
      "name": "greet",
      "outputs": [
        {
          "internalType": "string",
          "name": "",
          "type": "string"
        }
      ],
      "stateMutability": "view",
      "type": "function"
    },
    {
      "inputs": [
        {
          "internalType": "string",
          "name": "_greeting",
          "type": "string"
        }
      ],
      "name": "setGreeting",
      "outputs": [],
      "stateMutability": "nonpayable",
      "type": "function"
    }
  ],
  "bytecode": "0x6080604052600a6001553480156200001657600080fd5b50604051620010b5380380620010b583398181016040528101906200003c9190620002e7565b6200006c6040518060600160405280602281526020016200109360229139826200008560201b620001f61760201c565b80600090816200007d919062000583565b5050620006f7565b6200012782826040516024016200009e929190620006bc565b6040516020818303038152906040527f4b5c4277000000000000000000000000000000000000000000000000000000007bffffffffffffffffffffffffffffffffffffffffffffffffffffffff19166020820180517bffffffffffffffffffffffffffffffffffffffffffffffffffffffff83818316178352505050506200012b60201b60201c565b5050565b60008151905060006a636f6e736f6c652e6c6f679050602083016000808483855afa5050505050565b6000604051905090565b600080fd5b600080fd5b600080fd5b600080fd5b6000601f19601f8301169050919050565b7f4e487b7100000000000000000000000000000000000000000000000000000000600052604160045260246000fd5b620001bd8262000172565b810181811067ffffffffffffffff82111715620001df57620001de62000183565b5b80604052505050565b6000620001f462000154565b9050620002028282620001b2565b919050565b600067ffffffffffffffff82111562000225576200022462000183565b5b620002308262000172565b9050602081019050919050565b60005b838110156200025d57808201518184015260208101905062000240565b60008484015250505050565b6000620002806200027a8462000207565b620001e8565b9050828152602081018484840111156200029f576200029e6200016d565b5b620002ac8482856200023d565b509392505050565b600082601f830112620002cc57620002cb62000168565b5b8151620002de84826020860162000269565b91505092915050565b6000602082840312156200030057620002ff6200015e565b5b600082015167ffffffffffffffff81111562000321576200032062000163565b5b6200032f84828501620002b4565b91505092915050565b600081519050919050565b7f4e487b7100000000000000000000000000000000000000000000000000000000600052602260045260246000fd5b600060028204905060018216806200038b57607f821691505b602082108103620003a157620003a062000343565b5b50919050565b60008190508160005260206000209050919050565b60006020601f8301049050919050565b600082821b905092915050565b6000600883026200040b7fffffffffffffffffffffffffffffffffffffffffffffffffffffffffffffffff82620003cc565b620004178683620003cc565b95508019841693508086168417925050509392505050565b6000819050919050565b6000819050919050565b6000620004646200045e62000458846200042f565b62000439565b6200042f565b9050919050565b6000819050919050565b620004808362000443565b620004986200048f826200046b565b848454620003d9565b825550505050565b600090565b620004af620004a0565b620004bc81848462000475565b505050565b5b81811015620004e457620004d8600082620004a5565b600181019050620004c2565b5050565b601f8211156200053357620004fd81620003a7565b6200050884620003bc565b8101602085101562000518578190505b620005306200052785620003bc565b830182620004c1565b50505b505050565b600082821c905092915050565b6000620005586000198460080262000538565b1980831691505092915050565b600062000573838362000545565b9150826002028217905092915050565b6200058e8262000338565b67ffffffffffffffff811115620005aa57620005a962000183565b5b620005b6825462000372565b620005c3828285620004e8565b600060209050601f831160018114620005fb5760008415620005e6578287015190505b620005f2858262000565565b86555062000662565b601f1984166200060b86620003a7565b60005b8281101562000635578489015182556001820191506020850194506020810190506200060e565b8683101562000655578489015162000651601f89168262000545565b8355505b6001600288020188555050505b505050505050565b600082825260208201905092915050565b6000620006888262000338565b6200069481856200066a565b9350620006a68185602086016200023d565b620006b18162000172565b840191505092915050565b60006040820190508181036000830152620006d881856200067b565b90508181036020830152620006ee81846200067b565b90509392505050565b61098c80620007076000396000f3fe608060405234801561001057600080fd5b50600436106100415760003560e01c806361bc221a14610046578063a413686214610064578063cfae321714610080575b600080fd5b61004e61009e565b60405161005b9190610373565b60405180910390f35b61007e600480360381019061007991906104e8565b6100a4565b005b610088610164565b60405161009591906105b0565b60405180910390f35b60015481565b61015160405180606001604052806023815260200161093460239139600080546100cd90610601565b80601f01602080910402602001604051908101604052809291908181526020018280546100f990610601565b80156101465780601f1061011b57610100808354040283529160200191610146565b820191906000526020600020905b81548152906001019060200180831161012957829003601f168201915b505050505083610292565b806000908161016091906107de565b5050565b60606000805461017390610601565b80601f016020809104026020016040519081016040528092919081815260200182805461019f90610601565b80156101ec5780601f106101c1576101008083540402835291602001916101ec565b820191906000526020600020905b8154815290600101906020018083116101cf57829003601f168201915b5050505050905090565b61028e828260405160240161020c9291906108b0565b6040516020818303038152906040527f4b5c4277000000000000000000000000000000000000000000000000000000007bffffffffffffffffffffffffffffffffffffffffffffffffffffffff19166020820180517bffffffffffffffffffffffffffffffffffffffffffffffffffffffff8381831617835250505050610331565b5050565b61032c8383836040516024016102aa939291906108e7565b6040516020818303038152906040527f2ced7cef000000000000000000000000000000000000000000000000000000007bffffffffffffffffffffffffffffffffffffffffffffffffffffffff19166020820180517bffffffffffffffffffffffffffffffffffffffffffffffffffffffff8381831617835250505050610331565b505050565b60008151905060006a636f6e736f6c652e6c6f679050602083016000808483855afa5050505050565b6000819050919050565b61036d8161035a565b82525050565b60006020820190506103886000830184610364565b92915050565b6000604051905090565b600080fd5b600080fd5b600080fd5b600080fd5b6000601f19601f8301169050919050565b7f4e487b7100000000000000000000000000000000000000000000000000000000600052604160045260246000fd5b6103f5826103ac565b810181811067ffffffffffffffff82111715610414576104136103bd565b5b80604052505050565b600061042761038e565b905061043382826103ec565b919050565b600067ffffffffffffffff821115610453576104526103bd565b5b61045c826103ac565b9050602081019050919050565b82818337600083830152505050565b600061048b61048684610438565b61041d565b9050828152602081018484840111156104a7576104a66103a7565b5b6104b2848285610469565b509392505050565b600082601f8301126104cf576104ce6103a2565b5b81356104df848260208601610478565b91505092915050565b6000602082840312156104fe576104fd610398565b5b600082013567ffffffffffffffff81111561051c5761051b61039d565b5b610528848285016104ba565b91505092915050565b600081519050919050565b600082825260208201905092915050565b60005b8381101561056b578082015181840152602081019050610550565b60008484015250505050565b600061058282610531565b61058c818561053c565b935061059c81856020860161054d565b6105a5816103ac565b840191505092915050565b600060208201905081810360008301526105ca8184610577565b905092915050565b7f4e487b7100000000000000000000000000000000000000000000000000000000600052602260045260246000fd5b6000600282049050600182168061061957607f821691505b60208210810361062c5761062b6105d2565b5b50919050565b60008190508160005260206000209050919050565b60006020601f8301049050919050565b600082821b905092915050565b6000600883026106947fffffffffffffffffffffffffffffffffffffffffffffffffffffffffffffffff82610657565b61069e8683610657565b95508019841693508086168417925050509392505050565b6000819050919050565b60006106db6106d66106d18461035a565b6106b6565b61035a565b9050919050565b6000819050919050565b6106f5836106c0565b610709610701826106e2565b848454610664565b825550505050565b600090565b61071e610711565b6107298184846106ec565b505050565b5b8181101561074d57610742600082610716565b60018101905061072f565b5050565b601f8211156107925761076381610632565b61076c84610647565b8101602085101561077b578190505b61078f61078785610647565b83018261072e565b50505b505050565b600082821c905092915050565b60006107b560001984600802610797565b1980831691505092915050565b60006107ce83836107a4565b9150826002028217905092915050565b6107e782610531565b67ffffffffffffffff811115610800576107ff6103bd565b5b61080a8254610601565b610815828285610751565b600060209050601f8311600181146108485760008415610836578287015190505b61084085826107c2565b8655506108a8565b601f19841661085686610632565b60005b8281101561087e57848901518255600182019150602085019450602081019050610859565b8683101561089b5784890151610897601f8916826107a4565b8355505b6001600288020188555050505b505050505050565b600060408201905081810360008301526108ca8185610577565b905081810360208301526108de8184610577565b90509392505050565b600060608201905081810360008301526109018186610577565b905081810360208301526109158185610577565b905081810360408301526109298184610577565b905094935050505056fe4368616e67696e67206772656574696e672066726f6d202725732720746f2027257327a26469706673582212209d49a5f4eacda2b12a5a4c49f7135b8fbffd77ea5dd76db420e89a209f4aaa3864736f6c634300081100334465706c6f79696e67206120477265657465722077697468206772656574696e673a",
  "linkReferences": {},
  "deployedLinkReferences": {}
}