{
  "_format": "hh-sol-artifact-1",
  "contractName": "Greeter",
  "sourceName": "contracts/Greeter.sol",
  "abi": [
    {
      "inputs": [
        {
          "internalType": "string",
          "name": "_greeting",
          "type": "string"
        }
      ],
      "stateMutability": "nonpayable",
      "type": "constructor"
    },
    {
      "inputs": [],
      "name": "greet",
      "outputs": [
        {
          "internalType": "string",
          "name": "",
          "type": "string"
        }
      ],
      "stateMutability": "view",
      "type": "function"
    },
    {
      "inputs": [
        {
          "internalType": "string",
          "name": "_greeting",
          "type": "string"
        }
      ],
      "name": "setGreeting",
      "outputs": [],
      "stateMutability": "nonpayable",
      "type": "function"
    },
    {
      "inputs": [],
      "name": "toggleUnlocked",
      "outputs": [],
      "stateMutability": "nonpayable",
      "type": "function"
    },
    {
      "inputs": [],
      "name": "unlocked",
      "outputs": [
        {
          "internalType": "bool",
          "name": "",
          "type": "bool"
        }
      ],
      "stateMutability": "view",
      "type": "function"
    }
  ],
  "bytecode": "0x60806040526000600160006101000a81548160ff0219169083151502179055503480156200002c57600080fd5b5060405162000d7b38038062000d7b8339818101604052810190620000529190620001fe565b80600090816200006391906200049a565b505062000581565b6000604051905090565b600080fd5b600080fd5b600080fd5b600080fd5b6000601f19601f8301169050919050565b7f4e487b7100000000000000000000000000000000000000000000000000000000600052604160045260246000fd5b620000d48262000089565b810181811067ffffffffffffffff82111715620000f657620000f56200009a565b5b80604052505050565b60006200010b6200006b565b9050620001198282620000c9565b919050565b600067ffffffffffffffff8211156200013c576200013b6200009a565b5b620001478262000089565b9050602081019050919050565b60005b838110156200017457808201518184015260208101905062000157565b60008484015250505050565b60006200019762000191846200011e565b620000ff565b905082815260208101848484011115620001b657620001b562000084565b5b620001c384828562000154565b509392505050565b600082601f830112620001e357620001e26200007f565b5b8151620001f584826020860162000180565b91505092915050565b60006020828403121562000217576200021662000075565b5b600082015167ffffffffffffffff8111156200023857620002376200007a565b5b6200024684828501620001cb565b91505092915050565b600081519050919050565b7f4e487b7100000000000000000000000000000000000000000000000000000000600052602260045260246000fd5b60006002820490506001821680620002a257607f821691505b602082108103620002b857620002b76200025a565b5b50919050565b60008190508160005260206000209050919050565b60006020601f8301049050919050565b600082821b905092915050565b600060088302620003227fffffffffffffffffffffffffffffffffffffffffffffffffffffffffffffffff82620002e3565b6200032e8683620002e3565b95508019841693508086168417925050509392505050565b6000819050919050565b6000819050919050565b60006200037b620003756200036f8462000346565b62000350565b62000346565b9050919050565b6000819050919050565b62000397836200035a565b620003af620003a68262000382565b848454620002f0565b825550505050565b600090565b620003c6620003b7565b620003d38184846200038c565b505050565b5b81811015620003fb57620003ef600082620003bc565b600181019050620003d9565b5050565b601f8211156200044a576200041481620002be565b6200041f84620002d3565b810160208510156200042f578190505b620004476200043e85620002d3565b830182620003d8565b50505b505050565b600082821c905092915050565b60006200046f600019846008026200044f565b1980831691505092915050565b60006200048a83836200045c565b9150826002028217905092915050565b620004a5826200024f565b67ffffffffffffffff811115620004c157620004c06200009a565b5b620004cd825462000289565b620004da828285620003ff565b600060209050601f831160018114620005125760008415620004fd578287015190505b6200050985826200047c565b86555062000579565b601f1984166200052286620002be565b60005b828110156200054c5784890151825560018201915060208501945060208101905062000525565b868310156200056c578489015162000568601f8916826200045c565b8355505b6001600288020188555050505b505050505050565b6107ea80620005916000396000f3fe608060405234801561001057600080fd5b506004361061004c5760003560e01c80636a5e265014610051578063a41368621461006f578063a88178ec1461008b578063cfae321714610095575b600080fd5b6100596100b3565b6040516100669190610201565b60405180910390f35b61008960048036038101906100849190610376565b6100c6565b005b610093610128565b005b61009d610154565b6040516100aa919061043e565b60405180910390f35b600160009054906101000a900460ff1681565b600160009054906101000a900460ff16610115576040517f08c379a000000000000000000000000000000000000000000000000000000000815260040161010c906104ac565b60405180910390fd5b806000908161012491906106e2565b5050565b600160009054906101000a900460ff1615600160006101000a81548160ff021916908315150217905550565b606060008054610163906104fb565b80601f016020809104026020016040519081016040528092919081815260200182805461018f906104fb565b80156101dc5780601f106101b1576101008083540402835291602001916101dc565b820191906000526020600020905b8154815290600101906020018083116101bf57829003601f168201915b5050505050905090565b60008115159050919050565b6101fb816101e6565b82525050565b600060208201905061021660008301846101f2565b92915050565b6000604051905090565b600080fd5b600080fd5b600080fd5b600080fd5b6000601f19601f8301169050919050565b7f4e487b7100000000000000000000000000000000000000000000000000000000600052604160045260246000fd5b6102838261023a565b810181811067ffffffffffffffff821117156102a2576102a161024b565b5b80604052505050565b60006102b561021c565b90506102c1828261027a565b919050565b600067ffffffffffffffff8211156102e1576102e061024b565b5b6102ea8261023a565b9050602081019050919050565b82818337600083830152505050565b6000610319610314846102c6565b6102ab565b90508281526020810184848401111561033557610334610235565b5b6103408482856102f7565b509392505050565b600082601f83011261035d5761035c610230565b5b813561036d848260208601610306565b91505092915050565b60006020828403121561038c5761038b610226565b5b600082013567ffffffffffffffff8111156103aa576103a961022b565b5b6103b684828501610348565b91505092915050565b600081519050919050565b600082825260208201905092915050565b60005b838110156103f95780820151818401526020810190506103de565b60008484015250505050565b6000610410826103bf565b61041a81856103ca565b935061042a8185602086016103db565b6104338161023a565b840191505092915050565b600060208201905081810360008301526104588184610405565b905092915050565b7f536f7272792c2074686973206973206c6f636b65642100000000000000000000600082015250565b60006104966016836103ca565b91506104a182610460565b602082019050919050565b600060208201905081810360008301526104c581610489565b9050919050565b7f4e487b7100000000000000000000000000000000000000000000000000000000600052602260045260246000fd5b6000600282049050600182168061051357607f821691505b602082108103610526576105256104cc565b5b50919050565b60008190508160005260206000209050919050565b60006020601f8301049050919050565b600082821b905092915050565b60006008830261058e7fffffffffffffffffffffffffffffffffffffffffffffffffffffffffffffffff82610551565b6105988683610551565b95508019841693508086168417925050509392505050565b6000819050919050565b6000819050919050565b60006105df6105da6105d5846105b0565b6105ba565b6105b0565b9050919050565b6000819050919050565b6105f9836105c4565b61060d610605826105e6565b84845461055e565b825550505050565b600090565b610622610615565b61062d8184846105f0565b505050565b5b818110156106515761064660008261061a565b600181019050610633565b5050565b601f821115610696576106678161052c565b61067084610541565b8101602085101561067f578190505b61069361068b85610541565b830182610632565b50505b505050565b600082821c905092915050565b60006106b96000198460080261069b565b1980831691505092915050565b60006106d283836106a8565b9150826002028217905092915050565b6106eb826103bf565b67ffffffffffffffff8111156107045761070361024b565b5b61070e82546104fb565b610719828285610655565b600060209050601f83116001811461074c576000841561073a578287015190505b61074485826106c6565b8655506107ac565b601f19841661075a8661052c565b60005b828110156107825784890151825560018201915060208501945060208101905061075d565b8683101561079f578489015161079b601f8916826106a8565b8355505b6001600288020188555050505b50505050505056fea26469706673582212204e84d1bff4da26f07021d3ad8f14f01f5c93bfb2eaa031e8ab74c849a703993564736f6c63430008110033",
  "linkReferences": {},
  "deployedLinkReferences": {}
}